:020000040800F2
:10000000E806002029020008C9170008C1170008E7
:10001000C5170008D5030008D11A00080000000029
:10002000000000000000000000000000D1170008E0
:10003000F103000800000000CD170008D5170008E4
:10004000430200084302000843020008430200087C
:10005000430200084302000843020008430200086C
:10006000430200084302000843020008430200085C
:10007000430200084302000843020008430200084C
:10008000430200084302000843020008E503000899
:10009000D903000843020008430200084302000895
:1000A000430200088D1800084302000843020008BC
:1000B000430200084302000843020008430200080C
:1000C00043020008430200084302000843020008FC
:1000D00043020008430200084302000843020008EC
:1000E00043020008430200084302000843020008DC
:1000F00043020008430200084302000843020008CC
:1001000043020008430200084302000843020008BB
:1001100043020008430200084302000843020008AB
:10012000430200084302000843020008430200089B
:10013000430200084302000843020008430200088B
:10014000430200084302000843020008430200087B
:10015000430200084302000843020008430200086B
:10016000430200084302000843020008430200085B
:100170004302000843020008430200080000000098
:10018000430200084302000800F002F800F03CF8C7
:100190000AA090E8000C82448344AAF10107DA45E2
:1001A00001D100F031F8AFF2090EBAE80F0013F0F8
:1001B000010F18BFFB1A43F001031847981A0000FB
:1001C000B81A0000103A24BF78C878C1FAD852078C
:1001D00024BF30C830C144BF04680C6070470000C1
:1001E0000023002400250026103A28BF78C1FBD840
:1001F000520728BF30C148BF0B6070471FB501F0E0
:1002000013FD1FBD10B510BD00F0A9F81146FFF792
:10021000F5FF01F05FFC00F0C7F803B4FFF7F2FF51
:1002200003BC00F0CFF800000948804709480047A8
:10023000FEE7FEE7FEE7FEE7FEE7FEE7FEE7FEE796
:10024000FEE7FEE704480549054A064B70470000F3
:100250007918000889010008E8000020E80600205D
:10026000E8020020E802002053EA020C00F0698056
:100270002DE9F04B4FF00006002B1FBFB3FA83F5BA
:1002800003FA05F424FA05F65E4012BF1643B2FAEB
:1002900082F502FA05F4C5F120051EBF22FA05FC1D
:1002A00044EA0C04203556EA044C4FEA144418BFC3
:1002B000641C4FF000084FF00009904271EB030CF2
:1002C00039D3002919BFB1FA81F701FA07F6B0FA5C
:1002D00080F700FA07F6C7F120071EBF20FA07FCD7
:1002E00046EA0C062037B6FBF4FCA7EB0507103FE7
:1002F00007F01F0BCBF120062CFA06F60CFA0BFBCD
:1003000044BFB3460026202FA4BF5E464FF0000B2B
:100310005BEA060C08BF4FF0010B19EB0B0948EB29
:100320000608ABFB027C06FB02CC0BFB03CCC01B1C
:1003300071EB0C01C1E70B46024641464846BDE859
:10034000F08B13B5084318BF4FF0FF300146AFF3F1
:100350000080BDE81C407047704770477047754685
:1003600000F02CF8AE4605006946534620F0070021
:10037000854618B020B5FFF765FFBDE820404FF077
:1003800000064FF000074FF000084FF0000BAC469E
:10039000ACE8C009ACE8C009ACE8C009ACE8C009E9
:1003A00021F007018D46704710B50446AFF3008079
:1003B0002046BDE81040FFF730BF000000487047FE
:1003C0001000002001491820ABBEFEE72600020005
:1003D00070470000FEE7000040F27000C2F200002B
:1003E00000F082B940F27000C2F2000000F07CB967
:1003F0007047000090F82020013A012A08D80068D0
:1004000000F114020020136819431160704700BF07
:1004100000F1240201204FF4802113681943116078
:100420007047000010B590F820E0D0F800C0AEF1A1
:10043000010EBEF1010FDCF808E011D81EF0E05FFC
:1004400018D0CEF3016EBEF1030F1DD100F12401CF
:1004500001204FF400020B681A430A6010BD00BF70
:1004600000F1240101204FF480220B681A430A6036
:1004700010BD00BF00F1240101204FF400120B68F1
:100480001A430A6010BD00BF012000FA0EF0186088
:10049000886828B14B68CC6844EAC303034303E08F
:1004A0000868CB6843EA40530CEB0E10C0F880316B
:1004B0000B69C0F88431097D012905D100F5C271AD
:1004C0000B6843F480730B605168C0F88C1112689C
:1004D00000F5C071C0F88821002001220B681A4382
:1004E0000A6010BDB0B590F82020013A012A2FD83B
:1004F00046F20060C4F20000026842F001020260AD
:10050000026822F47C520260D1F814E0CC694A6A95
:100510000368012C43EA022202600EF01F024FF032
:10052000010303FA02F2C3696FEA020C23EA020331
:10053000C36113D02CBBC36803EA0C03C360CB6850
:100540008C8844EA034300EBCE0423640B4611E09D
:10055000416A41F4802141620120B0BDC368134368
:10056000C3600B688C8844EA034300EBCE04236429
:1005700001F10C038C681B8843EA044300EBCE04B2
:10058000636443688D6943EA0204D1F810E0096AA4
:10059000002D08BF03EA0C0444604369BEF1000F5C
:1005A00043EA020408BF03EA0C040129446102D1B2
:1005B000C1691143C161016821F00101016000209E
:1005C000B0BD00007047000010B590F82040013C1D
:1005D000012C71D8D0F800C0002977D0DCF8104089
:1005E000A40777D00CEB011CDCF8B0410CF5D87EE9
:1005F00014F004049460DCF8B04119BFE4085460BE
:10060000640D1460DEF80040002904F00204D46098
:10061000DCF8B44104F00F041461DCF8B441C4F315
:1006200007249461DCF8B4414FEA14445461DCF8C7
:10063000B8211A70026802EB0112D2F8B8214FEA11
:1006400012225A70026802EB0112D2F8B8214FEA66
:1006500012429A70026802EB0112D2F8B8214FEAF6
:100660001262DA70026802EB0112D2F8BC211A7130
:10067000026802EB0112D2F8BC214FEA12225A7131
:10068000026802EB0112D2F8BC214FEA12429A71C1
:10069000026802EB0112D2F8BC214FEA1262DA7151
:1006A000006814BF00F1100100F10C0100202022AD
:1006B0000B681A430A6010BD00F1240101204FF4B9
:1006C00080220B681A430A6010BD00BFDCF80C40A2
:1006D000A40787D100F1240101204FF400120B6818
:1006E0001A430A6010BD00002DE9F04F81B00446A6
:1006F00000684669D0F804908768D0F80CB0D0F84C
:1007000010A0D0F81880F10704D1002530071DD4BF
:1007100024E000BFF90710D00121BA07816009D495
:10072000780700F1AF80380700F1B680204600F06E
:1007300029FA02E0204600F027FA0025F80500F12A
:100740008780F80300F1B180300707D51BF0100057
:1007500004D0206845F400751021C160700708D5E9
:100760001BF0080005D020680821C160204600F079
:10077000ABF9B00706D52068C068800702D02046D4
:1007800000F0A4F9700607D51AF0100004D0206814
:1007900045F4806510210161B00608D51AF0080003
:1007A00005D0206808210161204600F0B7F9F00665
:1007B00006D520680069800702D0204600F0B0F915
:1007C000B00308D519F0100005D020681021416051
:1007D000204600F0A7F9F00308D519F0080005D06D
:1007E000206808214160204600F0DCF9300440F127
:1007F0009B805FEA497040F1948006F4807008EABB
:10080000102028435FEA8871014648BF41F0020189
:10081000B20558BF01465FEA48700D4648BF45F033
:100820000405700558BF0D46300540F17A8018F078
:10083000700000F076801038000905286CD8DFE8D9
:1008400000F003595D61656945F0080564E000BF8B
:1008500020684FF48071BA0581600BD4780515D4F7
:1008600038051DD4204600F095F9F8037FF56CAFEC
:100870001BE000BF204600F08FF9F8037FF564AF5E
:1008800013E000BF4FF4006558E700BF05F50055C1
:10089000F8037FF559AF08E04FF480554EE700BFED
:1008A00005F58045F8037FF54FAF20684FF48031A0
:1008B000BA0381600AD4780310D4380314D42046D4
:1008C00000F06CF930073FF541AF47E7204600F0F4
:1008D00067F930073FF53AAF40E700BF05F500453F
:1008E00030073FF533AF39E705F5803530073FF581
:1008F0002DAF33E745F010050EE000BF45F02005B1
:100900000AE000BF45F0400506E000BF45F0800565
:1009100002E000BF45F480752068816921F0700114
:10092000816120680421416055B1606A40EA050197
:100930002046616201B0BDE8F04FFFF743BE00BF43
:1009400001B0BDE8F08F0000B0B5C8B1044690F822
:10095000200010B9204600F071F82068016841F0CD
:100960000101016000F016FA054600BF20684168E9
:10097000C90707D100F00EFA401B0B28F6D312E08E
:100980000120B0BD016821F00201016000F002FA0F
:10099000054600BF2068416889070DD500F0FAF9C7
:1009A000401B0B28F6D3606A052140F400306062DA
:1009B000012084F82010B0BD217E0268012922F0B8
:1009C000800208BF80320260617E0268012922F045
:1009D000400208BF40320260A17E0268012922F075
:1009E000200208BF20320260E17E0268012922F065
:1009F000100218BF10320260217F0268012922F024
:100A0000080208BF08320260617F0268012922F0F3
:100A1000040208BF04320260D4E901C2D4E90335FC
:100A200061691A432A431143ACF101021143C161C8
:100A300000200121606284F82010B0BD80B586B02E
:100A4000016846F20040C4F20000814202D006B0C4
:100A500080BD00BF002143F630020191C4F20202C2
:100A6000136900F5CE3043F000731361136903F08E
:100A700000730193019B0191136843F0010313601C
:100A8000126802F001020192019A4FF4C0520192E1
:100A90000222CDE90221032104910921059101A936
:100AA00000F096F813200021002200F0F7F913203F
:100AB00000F0E0F914200021002200F0EFF91420EA
:100AC00000F0D8F906B080BD70470000B0B592B014
:100AD0000020C4F20200402100F04EF940F2700400
:100AE000C2F2000403AA01AB204600210025FFF753
:100AF0006BFD4FF400700C90012010900CA90DF1CB
:100B00002F020AAB20468DF82F508DF84450CDE9C6
:100B10000E550A95FFF786FC12B0B0BD7047000075
:100B20007047000070470000B0B5044690F8200000
:100B300001281DD1022084F820002068016821F0DE
:100B40000101016000F026F9054600BF20684068F9
:100B5000C00713D000F01EF9401B0B28F6D3606AC3
:100B600040F400306062052084F820000120B0BD10
:100B7000606A40F4002060620120B0BD0020606225
:100B8000B0BD0000704700000020C4F202008021C8
:100B900000F0F2B870470000704700007047000096
:100BA0007047000070470000B0B5044600F0F2F84E
:100BB000054640F20000C2F200000078611C18BF38
:100BC000044400BF00F0E6F8401BA042FAD3B0BDD9
:100BD0002DE9F04F82B000F13E4241F6004502F1AE
:100BE000FF77C4F20205082243F6004E4FEAB7260B
:100BF000A84208BF0722C4F2010E072E38BF4FEAF1
:100C0000B7220125002600274FF00008009208E0D7
:100C100008F101080437B8F1100F06F1020600F0E0
:100C2000A7800C6805FA08F914EA090FF0D0D1F88A
:100C300004B003220BF0030CACF10104B240012C10
:100C40006FEA020A10D88268CC6802EA0A02B4404D
:100C5000224382604268CBF3001422EA090204FABC
:100C600008F42243426005E0BCF1030F02D14FF0CB
:100C7000030C20E0C2688C6802EA0A02B4402243F6
:100C8000BCF1020FC26016D16FF0030202EA5802F3
:100C90000244D2F820C007F01C050F230C69AB40BA
:100CA0002CEA030304FA05F52B431362D1F804B0D0
:100CB00001250BF0030C02680CFA06F302EA0A02A3
:100CC0001A431BF4403F0260A2D0002243F64403C3
:100CD0000192C4F202031A684FF6084C42F48042B3
:100CE0001A601A68CFF6FF7C02F480420192019AE2
:100CF00028F00302724452F80C3007F00C050F2460
:100D0000AC40A343009C04FA05F52B4342F80C3099
:100D1000DEF808204B6842EA090543F60C4CDC0279
:100D200058BF22EA0905CEF80850C4F2010CDCF8DD
:100D300000209C0242EA090558BF22EA0905CCF8C6
:100D40000050DEF804209C0342EA090558BF22EA5D
:100D50000905CEF80450DEF80020DB0342EA09055D
:100D600058BF22EA0905CEF80050012550E700BF20
:100D700002B0BDE8F08F0000426902EA010391432E
:100D800041EA034181617047002A08BF090481617B
:100D90007047000040F2E000C2F2000000687047B7
:100DA00040F2000040F2E001C2F20000C2F2000195
:100DB00000780A68104408607047000080B543F668
:100DC0000040C4F20200016841F400710160016852
:100DD00041F480610160016841F480710160032089
:100DE00000F088F80F2000F005F800F027F8002048
:100DF00080BD000070B540F20006C2F2000640F26D
:100E000008013278C2F200014FF47A730968B3FB2B
:100E1000F2F20446B1FBF2F1084600F01BFB0F2C86
:100E20004FF0010508D838B94FF0FF3021460022B5
:100E3000002500F033F87460284670BD82B00020B1
:100E400043F640010190C4F202014A6842F4804234
:100E50004A604A6802F480420192019A0090086850
:100E600040F080500860086800F0805000900098C2
:100E700002B07047002848BF7047C1B200F01F00A1
:100E8000012202FA00F04EF20012CEF2000242EA13
:100E9000D10121F0030108607047000010B54EF643
:100EA0000C5CCEF2000CDCF80030C3F3022E8EF0A6
:100EB0000704042C28BF0424BEF103034FF0FF3EB7
:100EC0000EFA04F438BF0023A14399400EFA03F34D
:100ED0009A43114300F00F0200F160430901043A04
:100EE00003F564436244002848BF02F10C03197003
:100EF00010BD00004EF60C51CEF200010A684FF60C
:100F0000FF031A4060F30A2242F0806040F0FD7057
:100F1000086070472DE9F041002800F08B8043F60F
:100F20000808C4F202080446D8F8F8030D4600F099
:100F30000700884207D288F8F853D8F8F80300F081
:100F40000700A84276D12068810717D5410705D54B
:100F5000D8F8001041F4E051C8F80010010705D599
:100F6000D8F8001041F46041C8F80010D8F800101B
:100F7000A26821F0F0011143C8F80010C0073FD16A
:100F8000D8F8F80300F00700A84207D988F8F8530A
:100F9000D8F8F80300F00700A8424BD120684107B9
:100FA00007D5D8F80010E26821F4E0511143C8F8E1
:100FB0000010000708D5D8F80000216920F460402F
:100FC00040EAC100C8F8000000F054F8D8F800105A
:100FD00041F64242C1F30311C0F60002515C40F2F7
:100FE000080220FA01F140F20400C2F20000006899
:100FF000C2F200021160FFF7FDFE0020BDE8F081A3
:101000006068811E022907D258F8081C89015CBF5C
:101010000120BDE8F08111E0012807D158F8081C33
:1010200089035CBF0120BDE8F08107E058F8081C87
:10103000890703D40120BDE8F08100BFD8F8001073
:1010400021F003010843C8F80000FFF7A3FE06469D
:1010500041F28837D8F80000616800F00C00B0EB6E
:10106000810F8DD0FFF796FE801BB842F2D9032086
:10107000BDE8F08110B543F60404C4F202046068D0
:1010800000F00C0008280BD0042819BF42F20040E1
:10109000C0F2F40047F64000C0F27D1010BD00BF62
:1010A000206821682368490247F64001C0F27D119B
:1010B00000F03F02C3F388105CBF42F20041C0F26F
:1010C000F401A1FB00010023FFF7CEF82168022202
:1010D000C1F3014102EB4101B0FBF1F010BD000092
:1010E0002DE9F04182B0002868D00446007843F62C
:1010F0000006C007C4F202060BD0B06800F00C0076
:10110000042840F09F803068800302D56068002882
:1011100054D0207880071AD5B06810F00C0F09D091
:10112000B06800F00C00082840F0A680706840020B
:1011300000F1A2803068800702D5E06801283DD127
:101140003068216920F0F80040EAC1003060207862
:10115000000737D4207840074CD4A56955B3B06850
:1011600000F00C00082840F0BB80012D26D07068EC
:10117000E16900F480028A4220D1216A00F03F0236
:101180008A421BD147F6C071626A0140B1EB821FEF
:1011900014D1A16A4FF6FF73C903994300F440329A
:1011A000A1F580318A4209D1E16A00F07060B0EBAC
:1011B000016F03D1002002B0BDE8F081012002B030
:1011C000BDE8F0816069002840F20000C4F24720C9
:1011D00076D00121C0F8801EFFF7DCFD054600BF78
:1011E000706F8007B6D4FFF7D5FD401B0228F7D9F2
:1011F000DDE000BF306C10F080580AD10020019073
:10120000306C40F080503064306C00F080500190C1
:10121000019847F20007C4F200073868C00541D4BE
:10122000386840F480703860FFF7B4FD054600BFB1
:101230003868C00536D4FFF7ADFD401B0228F7D94A
:10124000B5E000BFB06800F00C00082803D170685A
:1012500040023FF558AF6068B0F5803F07D0B0F569
:10126000A02F40F08D80306840F4802030603068DE
:1012700040F4803030608DE0E068002852D00020DB
:10128000C4F2472001210160FFF784FD054600BF3D
:10129000306880073FF554AFFFF77CFD401B022804
:1012A000F6D984E0A068012805D005284ED1306F1A
:1012B00040F004003067306F40F0010030674FE0CD
:1012C0000021C0F8801EFFF765FD0546706F80079E
:1012D0007FF540AFFFF75EFD401B0228F6D966E0C0
:1012E0000027C4F2472700203866FFF753FD022D80
:1012F00005460BD1306880015ED5FFF74BFD401BE2
:1013000002284FF00300F5D955E700BF306880018F
:101310007FF550AFFFF73EFD401B02284FF0030062
:10132000F4D948E70020C4F2472000210160FFF70C
:1013300031FD0546306880077FF509AFFFF72AFDCC
:10134000401B02284FF00300F4D934E7316F002826
:1013500021F001013167316F21F0040131674DD077
:10136000FFF718FD054641F2883700BF306F800750
:1013700056D4FFF70FFD401BB842F7D917E000BF66
:101380003168002821F480313160316821F48021F6
:1013900031604FD0FFF7FEFC054600BF3068800388
:1013A0003FF5B7AEFFF7F6FC401B6428F6D90320E3
:1013B00002B0BDE8F08100BF04F11C052FCD084349
:1013C00040EA8210D9034FF6FF729143A1F58031B4
:1013D00040EA05600843706001203866FFF7DAFCD8
:1013E000044600BF306880013FF5E4AEFFF7D2FC51
:1013F000001B02284FF00300F4D9DCE6FFF7CAFC1B
:10140000054641F2883700BF306F800708D5FFF7E7
:10141000C1FC401BB8424FF00300F5D9CBE600BF3A
:10142000B8F1000F7FF499AE306C20F0805030643A
:1014300093E600BFFFF7AEFC054600BF30688003AF
:101440007FF567AEFFF7A6FC401B64284FF0030052
:10145000F4D9B0E6411E0020B0EB116F1CBF012093
:1014600070474EF21002CEF2000251604EF6235148
:10147000CEF20001F0230B700721906011607047DD
:10148000704700007047000010B590F83C20012A1A
:101490004FF0020251D080F83D200268D2F804E0FB
:1014A000D2F808C00C682EF07003234341F2FF7499
:1014B000C4F20004A24253600EDC40F2FF73C4F297
:1014C00000039A4216DCB2F1804F2BD040F2004369
:1014D000C4F2000324E000BF40F2FF33C4F2010372
:1014E0009A4213DC41F60003C4F200039A4219D079
:1014F000002313E040F60003C4F200039A4211D027
:1015000040F60043C4F200030AE000BF44F20003C7
:10151000C4F201039A4205D040F20043C4F2010331
:101520009A4204D149682CF080031943916001214B
:10153000002280F83D1080F83C20104610BD0000CD
:10154000002804BF0120704710B5044690F83D0004
:1015500028B9002084F83C00204600F01FF8022043
:1015600084F83D002068211D00F096F9012084F8E0
:10157000460084F83E0084F83F0084F8400084F878
:10158000410084F8420084F8430084F8440084F861
:10159000450084F83D00002010BD000080B582B0F9
:1015A00000680021C4F2010188421CBF02B080BD66
:1015B0000020019043F64400C4F2020001680022BA
:1015C00041F0010101600068002100F0010001907C
:1015D00001981920FFF762FC192002B0BDE8804095
:1015E000FFF748BC7047000010B501680446086961
:1015F000800744BFC8685FEA807039D40869400733
:1016000044BFC8685FEA40703ED40869000744BF21
:10161000C8685FEA007045D40869C00644BFC8685E
:101620005FEAC0604AD40869C0071CBFC8685FEAA7
:10163000C07051D10869000644BFC8685FEA006005
:1016400052D40869400644BFC8685FEA406053D47A
:101650000869800646BFC8685FEA806010BD6FF009
:10166000200220460A61BDE81040FFF70BBF00BF13
:101670006FF002000861012020778869800743D05D
:101680002046FFF7AFFF45E06FF00400086102203D
:101690002077886910F4407F40D02046FFF7A2FFF2
:1016A00042E000BF6FF00800086104202077C8699D
:1016B00080073DD02046FFF795FF3FE06FF0100018
:1016C000086108202077C86910F4407F3AD020468E
:1016D000FFF788FF3CE000BF6FF001000861204683
:1016E00000F03EF82168A5E76FF080000861204611
:1016F000FFF7C6FE2168A4E76FF0400008612046AE
:1017000000F05CF82168A3E7204600F025F82046A9
:1017100000F024F82168002020776FE7204600F0D1
:101720001BF8204600F01AF82168002020776CE7AB
:10173000204600F011F8204600F010F82168002043
:10174000207769E7204600F007F8204600F006F809
:1017500021680020207766E770470000704700008E
:1017600070470000B0B5044690F83C0001284FF0E7
:10177000020008BFB0BD012584F83C5084F83D004C
:10178000204600F027F900284FF0010006D0002184
:1017900084F83D5084F83C10B0BD00BF2068C1689B
:1017A00021F04001C160C16821F48041C160002086
:1017B000002184F83D5084F83C10B0BD7047000013
:1017C000FEE70000FEE70000FEE7000070470000B3
:1017D00070470000FFF7E4BAB0B592B0002443F6BA
:1017E00040000B94CDE90944CDE907440594CDE9C7
:1017F0000344CDE901440094C4F2020001680225CB
:1018000041F080510160006800F080500090009825
:1018100047F200000094C4F20000016841F48041E6
:101820000160006800F48040009000980120099059
:1018300010200A9008200E904020CDE90F050420CA
:10184000119006A80695CDE90C54FFF749FC08B1A4
:10185000FEE700BF0F20CDE901054FF48050CDE930
:10186000040401A802210394FFF754FB10B100BF48
:10187000FEE700BF12B0B0BD4EF68850CEF20000B9
:10188000016841F4700101607047000040F2980067
:10189000C2F20000FFF7A8BE10B540F6FF3E036895
:1018A000C4F2000E40F2004C7045C4F2010C27DC7B
:1018B000B0F1804F31D040F20042C4F200029042B9
:1018C0002BD040F60002C4F20002904225D041F62F
:1018D000FF72C4F20002904229DC70453CDCB0F19A
:1018E000804F5FD040F20042C4F20002904259D0D3
:1018F00040F60002C4F20002904253D056E000BF0E
:1019000040F60042C4F20002904206D0604504D086
:101910000022C4F201029042D9D14A6823F0700338
:10192000134341F6FF72C4F200029042D5DD43F644
:10193000FF72C4F20102904222DC42F20002C4F2C1
:10194000000290422ED00022C4F20102904229D01F
:10195000604527D02AE000BF40F60042C4F20002F2
:1019600090421FD041F60002C4F20002904219D00A
:1019700041F60042C4F20002904213D016E000BFCC
:1019800044F20002C4F2010290420BD044F600027D
:10199000C4F20102904205D044F20042C4F20102B6
:1019A000904203D1CA6823F44073134323F08002AA
:1019B0004B69D1F800E08C681A430260C46240F4BD
:1019C0008062C0F828E0624504BF09690163012113
:1019D000416110BD80B5D0F800E0DEF80800D1E923
:1019E00000C320F0770023F0070210434FEA3313BF
:1019F00040EA0C00072BCEF8080009D80020DFE8E9
:101A000003F00505050509233D5700BF80BD00BF54
:101A1000012080BDBCF1050F04BF012080BDDEF8B0
:101A20002000DEF8202022F00102CEF82020DEF88F
:101A30001820096922F0F00242EA0111CEF81810CC
:101A4000CEF82000002080BD88680969DEF82020DB
:101A5000DEF8203022F00A0223F00103CEF8203015
:101A6000DEF81830104323F0F00343EA0111CEF8FA
:101A70001810CEF82000002080BD00BF88680969DA
:101A8000DEF8202022F01002CEF82020DEF8182008
:101A9000DEF8203022F4704242EA013123F0A00245
:101AA00042EA0010CEF81810CEF82000002080BDC9
:101AB000D1E902020969DEF80830104323F47F43BC
:101AC00040EA01201843CEF80800002080BD000045
:101AD000FEE700008EB00024C4F2020462B6FFF7F5
:101AE0006DF9FFF779FE002643F6300004960A965A
:101AF000C4F202000168002241F0010101600068A7
:101B0000C02100F001000A900A982046C025FFF786
:101B10003BF90127694620460095CDE901760396F9
:101B2000FFF756F840F27005A4F5CE30C2F200057A
:101B300004214FF400324FF4401385E84300284657
:101B4000C5E90362C5E90536AE83FEF7FDFE08B1BF
:101B5000FEE700BF0E20099069462846CDE90667DA
:101B6000CDE90066CDE90266CDE904660897FEF787
:101B7000B9FC2846FEF7D8FF28460321FEF73AFCB9
:101B8000A4F58031284640F8281F40F27F214CF20E
:101B9000503280230496CDE90266CDE90A66C0E999
:101BA0000116C0E90326C0E90563FFF7C9FC08B1C7
:101BB000FEE700BF07200090002005F128040190F7
:101BC00069462046FFF7CEFD10B100BFFEE700BF1B
:101BD0000AA92046FFF758FC10B100BFFEE700BF7E
:101BE00040F2700800244FF400794FF0010AC2F26D
:101BF00000086D460DF137060AAF00BF4046294682
:101C000032463B468DF83740CDF80090CDF810A015
:101C10008DF81440CDE902440A94FEF703FC4FF41A
:101C2000FA70FEF7C1FFE9E7F1EE100A4FF6FF7117
:101C3000C0F2C03120EA010040F04070E1EE100A2D
:101C400070470000000000000000010203040607C6
:101C500008090000781C00080000002010000000A7
:101C6000C4010008881C000810000020D8060000ED
:101C7000E00100080000000001000000100000006A
:081C80000024F4000000000044
:040000050800018965
:00000001FF
